:020000040800F2
:1000000078930020650200086D0200086F02000866
:100010007102000873020008750200080000000069
:10002000000000000000000000000000CD010008FA
:10003000790200080000000011020008450E0008C7
:100040007F0200087F0200087F0200087F0200088C
:100050007F0200087F0200087F0200087F0200087C
:100060007F0200087F0200087F0200087F0200086C
:100070007F0200087F0200087F0200087F0200085C
:100080007F0200087F0200087F0200087F0200084C
:100090007F0200087F0200087F0200087F0200083C
:1000A0007F0200087F0200087F0200087F0200082C
:1000B0007F0200087F0200087F0200087F0200081C
:1000C0007F0200087F0200087F0200087F0200080C
:1000D0007F020008D90E0008F50E00087F02000814
:1000E0007F0200087F0200087F0200087F020008EC
:1000F0007F0200087F0200087F0200087F020008DC
:100100007F0200087F0200087F0200087F020008CB
:100110007F0200087F0200087F0200087F020008BB
:100120007F0200087F0200087F0200087F020008AB
:1001300000F002F800F03AF80AA090E8000C8244BF
:100140008344AAF10107DA4501D100F02FF8AFF29C
:10015000090EBAE80F0013F0010F18BFFB1A43F0A5
:1001600001031847CC210000EC210000103A24BF05
:1001700078C878C1FAD8520724BF30C830C144BF0C
:1001800004680C607047000000230024002500264E
:10019000103A28BF78C1FBD8520728BF30C148BFEA
:1001A0000B6070471FB51FBD10B510BD00F0F4F80F
:1001B0001146FFF7F7FF00F0ABFE00F012F903B4B1
:1001C000FFF7F2FF03BC00F019F90000224B196899
:1001D0000868B0E8F00F80F30988BFF36F8F4FF025
:1001E000000080F311884EF00D0E704700000000F3
:1001F00006480068006880F3088862B661B6BFF3FD
:100200004F8FBFF36F8F00DF00BF00BF08ED00E02E
:10021000EFF30980BFF36F8F0F4B1A6820E9F00FDF
:10022000106008B54FF0BF0080F31188BFF34F8F07
:10023000BFF36F8F01F0FCFC4FF0000080F31188DA
:10024000BDE8084019680868B0E8F00F80F3098835
:10025000BFF36F8F704700BF14000020EFF30580DD
:10026000704700000948804709480047FEE7FEE75D
:10027000FEE7FEE7FEE7FEE7FEE7FEE7FEE7FEE756
:1002800004480549054A064B70470000790E0008EE
:1002900031010008788D002078930020788F0020AD
:1002A000788F0020032A40F2308010F0030C00F019
:1002B000158011F8013BBCF1020F624498BF11F8A0
:1002C00001CB00F8013B38BF11F8013BA2F1040259
:1002D00098BF00F801CB38BF00F8013B11F00303D1
:1002E00000F02880083AC0F0088051F8043B083A32
:1002F00051F804CBA0E80810F5E7121D5CBF51F8D7
:10030000043B40F8043BAFF30080D20724BF11F850
:10031000013B11F801CB48BF11F8012B24BF00F8B5
:10032000013B00F801CB48BF00F8012B7047704734
:100330007047704710B5203AC0F00B80B1E81850F4
:10034000203AA0E81850B1E81850A0E81850BFF4BF
:10035000F5AF5FEA027C24BFB1E81850A0E818505E
:1003600044BF18C918C0BDE810405FEA827C24BFB2
:1003700051F8043B40F8043B08BF7047D20728BF40
:1003800031F8023B48BF11F8012B28BF20F8023B8F
:1003900048BF00F8012B7047754600F02BF8AE46B9
:1003A00005006946534620F00700854618B020B581
:1003B000FFF766FFBDE820404FF000064FF0000752
:1003C0004FF000084FF0000B21F00701AC46ACE8FD
:1003D000C009ACE8C009ACE8C009ACE8C0098D466A
:1003E000704710B50446AFF300802046BDE81040CA
:1003F000FFF7E5BE00487047188D0020014918201E
:10040000ABBEFEE7260002007047000010B5404971
:100410000978481CC11700EB91718910A0EB81018C
:100420003B4A11701046007830B101281ED00228D6
:1004300036D0032868D14DE03648006840F080701F
:10044000344908600846006840F4007008600846B7
:10045000006840F4806008600846006840F400606E
:1004600008602B48007800F0A3FA4EE029480068A5
:1004700040F48070274908600846006840F000702A
:1004800008600846006840F480600860084600681C
:1004900040F4006008601E48007800F089FA34E0FB
:1004A0001C48006840F480701A49086008460068DB
:1004B00040F4007008600846006840F08060086002
:1004C0000846006840F4006008601148007800F0B9
:1004D0006FFA1AE00F48006840F480700D49086018
:1004E0000846006840F4007008600846006840F460
:1004F000806008600846006840F0006008600448BA
:10050000007800F055FA00E000BF00BF10BD000009
:1005100004000020100C014008B50188009100BFC4
:100520008188009100BF08BD1B48806940F0010030
:10053000194988611948406820F0E060174948600F
:100540000846406840F0007048601348806940F0F9
:100550000400114988610846806940F008008861FC
:100560000846806940F0100088610846806940F0C4
:10057000200088610A48006820F44040084908606B
:100580000846006820F4805008600846006840F47F
:100590000050086070470000001002400000014059
:1005A000040801402848006840F00100264908601E
:1005B00000BF2548006800F002000028F9D0132091
:1005C00022490860204840681F4948600846406842
:1005D00040F48060486008464068486008464068CB
:1005E00020F4803048600846406820F400304860BD
:1005F0000846406820F4701048600846406848602B
:100600000846406840F4201048600846006840F002
:100610008070086000BF0C48006800F0007000287F
:10062000F9D00948406820F00300074948600846AF
:10063000406840F00200486000BF0348406800F096
:100640000C000828F9D17047001002400020024039
:1006500010B52848806940F00400264988610846A2
:10066000C06940F40030C8610846806940F001006C
:1006700088612148006820F480601F4908600846AE
:10068000006840F4006008600846006840F440706C
:1006900008600846006840F480400860084600682A
:1006A00020F4004008600846006820F440500860CC
:1006B000D02012490880081D008840F00800091D5C
:1006C00008800846008840F004000880084600883A
:1006D00040F4005008800846008840F01000088070
:1006E0000846008840F020000880262000F0B0F87E
:1006F00010BD000000100240000801400844004006
:100700005148806940F008004F4988614F480068AF
:1007100020F00C004D4908600846006820F00100F8
:1007200008600846006840F002000860084600685B
:1007300020F0C00008600846006820F01000086043
:100740000846006840F0200008600846006820F471
:10075000406008600846006820F480700860084621
:10076000006840F4007008600846006820F44040CB
:1007700008600846006820F4805008600846006859
:1007800040F4005008600846006820F480200860AB
:100790000846006840F4002008600846006820F41D
:1007A0004030086029480830006840F480502749EC
:1007B000083108602548006820F48000234908605B
:1007C0000846006840F4000008600846006820F40D
:1007D000401008601D480830006840F400501B4974
:1007E000083108601948006820F0806017490860E7
:1007F0000846006840F0006008600846006820F085
:100800004070086011480830006840F480400F498B
:10081000083108600D48006820F080400B490860EE
:100820000846006840F0004008600846006820F074
:100830004050086005480830006840F40040034913
:10084000083108607047000000100240040C0140AD
:1008500000F01F02012191404209920002F1E022C2
:10086000C2F80011704700004F48806940F008004E
:100870004D4988614D48006820F00F004B490860E1
:100880000846006840F00800086048480C300068DE
:1008900040F0010045490C3108604448006820F0F0
:1008A000F000424908600846006840F08000086097
:1008B0003E480C30006840F002003C490C310860B2
:1008C0003A48006820F470603849086008460068BB
:1008D00040F40060086035480C30006840F00400C7
:1008E00032490C3108603148006820F470402F49CB
:1008F00008600846006840F4004008602B480C304F
:10090000006840F0080029490C3108602748006859
:1009100020F47020254908600846006840F4003043
:10092000086022481030006820F010001F49103184
:1009300008601E48006820F470001C4908600846E2
:10094000006840F40010086018481030006840F05B
:1009500020001649103108601448006820F07060CB
:10096000124908600846006840F0007008600F48AF
:100970001030006840F040000C49103108600B480E
:10098000006820F07040094908600846006840F09F
:100990000050086005481030006840F080000349AE
:1009A000103108607047000000100240000C014048
:1009B00038B5044634B1012C7CD0022C78D0032CFD
:1009C00077D161E1EC48006800F48050B8B902E0EA
:1009D000322001F075F8E848006800F480500028E3
:1009E000F6D03120009000231A466946E34800689B
:1009F00001F06EFA3121E24800F0C4F956E0DE4819
:100A0000006800F40050B8B902E0322001F058F854
:100A1000D948006800F400500028F6D03220009039
:100A200000231A466946D548006801F051FA322180
:100A3000D34800F0A7F939E0CF48006800F48040BF
:100A4000B8B902E0322001F03BF8CB48006800F46E
:100A500080400028F6D03320009000231A466946D3
:100A6000C648006801F034FA3321C54800F08AF91D
:100A70001CE0C148006800F40040B8B902E0322030
:100A800001F01EF8BC48006800F400400028F6D0D1
:100A90004120009000231A466946B848006801F0DA
:100AA00017FA4121B64800F06DF900BF62E101E09C
:100AB00075E05EE1B048006800F48050B8B902E02B
:100AC000322000F0FDFFAC48006800F480500028A0
:100AD000F6D03420009000231A466946A7480068E3
:100AE00001F0F6F93421A64800F04CF956E0A2488E
:100AF000006800F40050B8B902E0322000F0E0FFD6
:100B00009D48006800F400500028F6D03520009081
:100B100000231A4669469948006801F0D9F9352141
:100B2000974800F02FF939E09348006800F48040BE
:100B3000B8B902E0322000F0C3FF8F48006800F42B
:100B400080400028F6D03620009000231A466946DF
:100B50008A48006801F0BCF93621894800F012F992
:100B60001CE08548006800F40040B8B902E032207B
:100B700000F0A6FF8048006800F400400028F6D08E
:100B80004220009000231A4669467C48006801F024
:100B90009FF942217A4800F0F5F800BFEAE0764874
:100BA000006800F48050B8B902E0322000F088FFFD
:100BB0007148006800F480500028F6D0372000907B
:100BC00000231A4669466D48006801F081F9372113
:100BD0006B4800F0D7F856E06748006800F4005012
:100BE000B8B902E0322000F06BFF6348006800F4FF
:100BF00000500028F6D03820009000231A4669469D
:100C00005E48006801F064F938215D4800F0BAF8E8
:100C100039E05948006800F48040B8B902E0322059
:100C200000F04EFF5448006800F480400028F6D0E1
:100C30003920009000231A4669465048006801F0A8
:100C400047F939214E4800F09DF81CE04A480068F9
:100C500000F40040B8B902E0322000F031FF46480D
:100C6000006800F400400028F6D0432000900023E4
:100C70001A4669464148006801F02AF94321404874
:100C800000F080F800BF75E03B48006800F4805039
:100C9000B8B902E0322000F013FF3748006800F4D2
:100CA00080500028F6D02A20009000231A4669467A
:100CB0003248006801F00CF92A21314800F062F84E
:100CC00056E02D48006800F40050B8B902E0322028
:100CD00000F0F6FE2848006800F400500028F6D026
:100CE0003020009000231A4669462448006801F02D
:100CF000EFF83021224800F045F839E01E4800683E
:100D000000F48040B8B902E0322000F0D9FE1A4861
:100D1000006800F480400028F6D0232000900023D3
:100D20001A4669461548006801F0D2F82321144894
:100D300000F028F81CE01048006800F40040B8B942
:100D400002E0322000F0BCFE0B48006800F40040D6
:100D50000028F6D04420009000231A466946074830
:100D6000006801F0B5F84421054800F00BF800BF19
:100D700000E000BF00BF38BD080C014000000020AB
:100D80000044004000BF028802F04002002AFAD06E
:100D90008180704710B500F001F810BD0CB500203F
:100DA000019000902548006840F480302349086095
:100DB00000BF2248006800F4003000900198401CF9
:100DC0000190009818B90198B0F5A06FF1D11B48B7
:100DD000006800F4003010B10120009001E0002014
:100DE00000900098012828D11548006840F01000B4
:100DF000134908600846006820F0030008600846B0
:100E0000006808600D4840680C4948600846406822
:100E100048600846406848600846406820F0030083
:100E200048600846406840F00100486000BF034841
:100E3000406800F00C000428F9D10CBD00100240FD
:100E40000020024010B500BFBF2080F31188BFF31F
:100E50004F8FBFF36F8F00BF01F02AF918B14FF029
:100E600080500449086000BF002080F3118800BF53
:100E700010BD000004ED00E010B51348006840F01C
:100E800001001149086008464068104908400E49B1
:100E90004860084600680E4908400B49086008464B
:100EA000006820F4802008600846406820F4FE00B6
:100EB00048604FF41F008860FFF76CFF4FF0006040
:100EC0000449086010BD0000001002400000FFF857
:100ED000FFFFF6FE08ED00E010B505480088044865
:100EE000008800F0100010B10148FFF715FB10BD9D
:100EF0000038014010B5054800880448008800F01B
:100F0000100010B10148FFF707FB10BD004400407E
:100F10001CB5FFF747FBFFF707FBFFF799FBFFF750
:100F2000EFFBFFF7A1FC0020012103468022CDE961
:100F3000001011A1124801F085F80020012103469C
:100F40008022CDE900100FA1114801F07BF80020AC
:100F5000012103468022CDE900100EA1104801F0C6
:100F600071F800220121032000F0B8FE0D4908604D
:100F700000F024FE00BFFEE7726561644B657900F6
:100F8000951B0008636C69636B4B6579000000007A
:100F9000E11500086A757374426C696E6B0000009D
:100FA000B1150008000000202DE9F04105460E466D
:100FB0001648076816480068001D00F077FA681C9C
:100FC00038B936B112480168091D124800F0B5FA67
:100FD0001AE07C190E4800684460BC4207D20C48F5
:100FE0000168091D0C48006800F08DFA0CE0084803
:100FF0000168091D0948006800F085FA0848006882
:10100000844201D206480460BDE8F0812800002037
:1010100014000020048D00201C0000201800002077
:101020004400002010B5044600F094FA22480068FD
:10103000401C214908602148006840B91F480460ED
:101040000846006801280DD100F032F90AE01C487A
:10105000006838B919480068C06AE16A884201D856
:101060001648046017480068401C16490860164975
:10107000E06A0968884202D91349E06A0860E16AB7
:1010800001EB8101114A02EB8100211D00F055FAAC
:1010900000F072FA0A48006868B108480068C06A3F
:1010A000E16A884207D24FF0805009490860BFF3D7
:1010B0004F8FBFF36F8F10BD24000020140000205D
:1010C00030000020400000202C000020508C002028
:1010D00004ED00E070B523E000F0A2FD13480068C5
:1010E00008B9012000E00020054601F0ADF8BDB9C7
:1010F00000F030FA0D48C068C468201D00F0D6F931
:101100000B480068401E0A4908600A480068401EF3
:101110000849086000F030FA204600F057F800BF98
:10112000044800680028D7D170BD0000F08C002072
:10113000240000202000002070B504460D46206CDD
:1011400070B1216CE0680844E0606168E068884242
:1011500001D32068E0602846226CE168FFF7A2F81E
:1011600070BD2DE9F04104460F4615464FF00008CA
:10117000A66B206C28B37DB93946226CA068FFF7B6
:1011800091F8216CA0680844A060D4E9011088425D
:1011900017D32068A06014E03946226CE068FFF79E
:1011A00081F8216CE068401AE0602168E0688842BC
:1011B00003D2216C6068401AE060022D01D106B1B3
:1011C000761E701CA0634046BDE8F08110B5044651
:1011D000206B00F0E1F9204600F0DEF910BD0000C0
:1011E00000BFFFF777FF064800680128F9D94FF0E4
:1011F000805004490860BFF34F8FBFF36F8FF0E753
:10120000508C002004ED00E02DE9F04106460D462B
:1012100017469846069C0DB9246000E02760E663F7
:1012200025640121204600F013FEBDE8F0812DE980
:10123000FF5F80460E469146DDE90E7A109CA9F1CB
:101240000100216B01EB800B2BF0070B002507E061
:10125000715D04F134004155705D00B902E06D1C10
:10126000102DF5D300BF002143200155052F00D3D9
:101270000427E762201D00F043F904F1180000F094
:101280003FF92461C7F10500A06164620020606439
:1012900084F8480041465846039A00F0F5F820606B
:1012A000BAF1000F01D0CAF80040BDE8FF9F00006E
:1012B00010B5002407E004EB84010F4A02EB810023
:1012C00000F011F9641C052CF5D30C4800F00BF963
:1012D0000B4800F008F90B4800F005F90A4800F047
:1012E00002F90A4800F0FFF8044809490860044878
:1012F0000849086010BD0000508C0020B48C00200C
:10130000C88C0020DC8C0020F08C0020048D002094
:10131000180000201C00002070B5054600F01AF9E6
:10132000A86B08B9012400E0002400F025F920464C
:1013300070BD70B5054600F00DF9A86BE96B8842E9
:1013400001D1012400E0002400F016F9204670BD10
:101350000A490968096809B9012100E0002121B1A1
:101360004FF0FF31064A116006E004490968C96878
:10137000C868034A416811607047000018000020E7
:101380004400002000BFBF2080F31188BFF34F8FBF
:10139000BFF36F8F00BF00BFFEE770B5044600F0DB
:1013A000D9F894F9455010E0606A08B9012000E0CE
:1013B000002038B904F1240000F006FF18B100F055
:1013C000D3FB00E003E0681E45B2002DECDC00BF5B
:1013D000FF2084F8450000F0CFF800F0BBF894F946
:1013E000445010E0206908B9012000E0002048B90D
:1013F00004F1100000F0E8FE08B100F0B5FB681E33
:1014000045B200E001E0002DECDC00BFFF2084F8D5
:10141000440000F0B1F870BD70B50446002504F03A
:10142000070020B104F00700C0F10800044400F0F8
:10143000F7FB1248006820B9114820F007000F4957
:10144000086010480068204448F6F831884210D2FD
:101450000C48006820440B490968884209D90748AC
:10146000006808490968451806480068204405498D
:10147000086000F0E9FE284670BD00000C00002066
:101480005800002008000020001F4FF08073036008
:10149000001F21F001030360001F034B0360143899
:1014A00002602038704700008513000801460A6971
:1014B000D1E901309860D1E9010358605068884251
:1014C00001D188685060002008611068401E1060DB
:1014D0001068704770B5044600F03CF8A56B00F04A
:1014E0004BF8284670BD00F1080141604FF0FF3114
:1014F000816000F10801C160016100210160704755
:1015000000210161704710B502460B685C1C0CB9E4
:10151000106907E002F1080000E0406844682468B0
:101520009C42FAD944684C604C68A1608860416074
:101530000A611468641C146010BD42684A609368B4
:101540008B60936859609160086103685B1C03605D
:101550007047000000BFBF2080F31188BFF34F8F9A
:10156000BFF36F8F00BF03480068401C014908604B
:10157000704700001000002006480068401E054922
:1015800008600846006820B9002080F3118800BF79
:1015900000BF7047100000207047000003484FF064
:1015A000E021486107200861704700003F190100F1
:1015B00000BF0A48006840F40060084908604FF422
:1015C000FA7000F07DFA0548006840F000600349B9
:1015D00008604FF4FA7000F073FAEAE7100801406F
:1015E0001CB50020019000BFF9480068FFF772FFAA
:1015F0000028F9D000231A4601A9F548006800F038
:1016000089FB9DF80400382878D00EDC332847D0B9
:1016100006DC232873D0302872D0322871D111E033
:1016200035286FD03628F9D1CBE042286BD004DCC6
:10163000392869D04128F1D167E043287DD044287A
:10164000ECD103E2002428E000E000BFE14800689C
:1016500000F001000028F8D100F024FD0090DD48E2
:101660000830006840F40010DA49083108600121B0
:10167000684600F03FFAD7480830006840F0200084
:10168000D4490831086000E000BFD248006800F08B
:1016900001000028F8D0601CC4B2052CD4DD04E29F
:1016A000002428E000E000BFCA48006800F0010004
:1016B0000028F8D100F0F6FC0090C6480830006819
:1016C00040F48000C349083108600121684600F0F9
:1016D00011FAC0480830006840F04000BD490831A8
:1016E000086000E000BFBB48006800F0010000286F
:1016F000F8D0601CC4B2052CD4DDD6E1BBE077E1A4
:1017000043E1D1E131E088E0E3E000242AE000E0B9
:1017100000BFB048006800F001000028F8D100F0D8
:10172000C1FC0090AB480830006840F40000A949B3
:10173000083108600121684600E0F8E000F0DAF9BD
:10174000A4480830006840F08000A24908310860D1
:1017500000E000BF9F48006800F001000028F8D0BA
:10176000601CC4B2052CD2DD9FE1002426E000BF3E
:101770009848006800F002000028F9D100F092FCBF
:10178000009094480830006840F4001091490831F6
:1017900008600121684600F0ADF98E480830006805
:1017A00040F020008B490831086000BF894800687C
:1017B00000F002000028F9D0601CC4B2082CD6DD6D
:1017C00073E1002426E000BF8248006800F00200B8
:1017D0000028F9D100F066FC00907E4808300068CF
:1017E00040F480007B49083108600121684600F020
:1017F00081F978480830006840F0400075490831A8
:10180000086000BF7348006800F002000028F9D0AB
:10181000601CC4B2072CD6DD47E1002428E000E0BC
:1018200000BF6C48006800F002000028F8D100F00A
:1018300039FC009067480830006840F400006549B2
:10184000083108600121684600F054F96148083009
:10185000006840F080005F490831086000E000BF88
:101860005C48006800F002000028F8D0601CC4B298
:10187000062CD4DD19E1002428E000E000BF554823
:10188000006800F004000028F8D100F00BFC009084
:1018900050480830006840F400104E490831086094
:1018A0000121684600F026F94A480830006840F0F7
:1018B000200048490831086000E000BF4548006842
:1018C00000F004000028F8D0601CC4B2052CD4DD60
:1018D000EBE0002428E000E000BF3E48006800F094
:1018E00004000028F8D100F0DDFB009039480830F2
:1018F000006840F4800037490831086001216846DB
:1019000000F0F8F833480830006840F040003149F2
:101910000831086000E000BF2E48006800F00400B5
:101920000028F8D0601CC4B2052CD4DDBDE0002432
:1019300028E000E000BF2748006800F0040000280D
:10194000F8D100F0AFFB009022480830006840F466
:1019500000002049083108600121684600F0CAF8FB
:101960001C480830006840F080001A4908310860BF
:1019700000E000BF1748006800F004000028F8D01D
:10198000601CC4B2052CD4DD8FE000242DE000E003
:1019900000BF1048006800F008000028F8D100F0EF
:1019A00081FB00900B480830006840F400100949A2
:1019B000083108600121684600F09CF805480830AD
:1019C000006840F0200003490831086005E000008D
:1019D00000000020080C014000BF3748006800F0FC
:1019E00008000028F8D0601CC4B2052CCFDD5CE0F4
:1019F000002428E000E000BF2F48006800F0080045
:101A00000028F8D100F04EFB00902B480830006809
:101A100040F480002849083108600121684600F040
:101A200069F825480830006840F040002249083134
:101A3000086000E000BF2048006800F008000028AF
:101A4000F8D0601CC4B2052CD4DD2EE0002428E0C0
:101A500000E000BF1848006800F008000028F8D136
:101A600000F020FB009014480830006840F40000AB
:101A70001149083108600121684600F03BF80E4822
:101A80000830006840F080000B490831086000E031
:101A900000BF0948006800F008000028F8D0601C6A
:101AA000C4B2052CD4DD00E000BF00BF9DF80410D7
:101AB0000248FFF767F997E5080C01400044004031
:101AC00070B50446002544B100F0AAF80021204674
:101AD000FFF76AFA00F0B8FB05463DB94FF08050B9
:101AE00003490860BFF34F8FBFF36F8F70BD0000D5
:101AF00004ED00E02DE9F047044688464FF0000968
:101B000000F08EF816480668206800EB080520688B
:101B1000B04207D92068A8420BD9B54209D94FF085
:101B2000010906E02068A84201D8B54201D94FF06A
:101B300001092560B9F1000F03D0A81B0021FFF7B0
:101B400033FA00F081FB07463FB94FF0805005495A
:101B50000860BFF34F8FBFF36F8FBDE8F0870000C1
:101B60002800002004ED00E00120014908607047D2
:101B70003800002070B505460C460548016818314C
:101B80002846FFF7C0FC01212046FFF70DFA70BD83
:101B90001400002000BFFEF739FC0520FFF790FF7E
:101BA000F9E70000034909680160034909684160D9
:101BB000704700003C000020280000201CB51148A0
:101BC00000210B462022CDE900100FA1104800F0A3
:101BD00039FA0446012C14D100BFBF2080F31188CC
:101BE000BFF34F8FBFF36F8F00BF4FF0FF30094936
:101BF000086001200849086000200849086000F0DA
:101C000053F81CBD4800002049444C45000000002A
:101C1000E1110008440000203000002028000020CE
:101C200002480068401C0149086070474C000020D1
:101C30001848006818B101201749086028E0002002
:101C4000154908601548016800E0491E01EB810054
:101C5000134A52F8200008B9012000E000200028B3
:101C6000F3D101EB81020E4B03EB82004268526814
:101C7000426000F108024368934202D14268526810
:101C800042604268D268074B1A600448016000BF96
:101C9000704700004C000020380000202C0000207D
:101CA000508C00201400002010B50A48006840F451
:101CB0007F00084908600846006840F07F400860DF
:101CC000FFF76CFC002004490860FEF791FA002041
:101CD00010BD000020ED00E0100000202DE9F843C9
:101CE00007460D4690460DB9002601E007FB05F6B4
:101CF00006F14800FFF790FB044644B104F148099F
:101D000043464A46294638460094FFF77DFA204666
:101D1000BDE8F8832DE9FF4782B0054689461E4697
:101D20004FF0000A2C4600BFFFF714FCD4F83880AF
:101D3000B8F1000F36D0E76849462046FFF7FCF9B6
:101D4000B6B9A8F10100A063206908B9012000E03C
:101D5000002008BB04F1100000F036FAE0B14FF0AB
:101D600080503A490860BFF34F8FBFF36F8F13E085
:101D7000E760606A08B9012000E0002060B904F162
:101D8000240000F021FA38B14FF080502F4908604C
:101D9000BFF34F8FBFF36F8FFFF7EEFB012006B04D
:101DA000BDE8F087049818B9FFF7E6FB0020F6E7D6
:101DB000BAF1000F04D16846FFF7F4FE4FF0010AB4
:101DC000FFF7DAFBFFF72CFFFFF7C4FB94F94400A1
:101DD000401C10B9002084F8440094F94500401CD0
:101DE00010B9002084F84500FFF7C6FB04A9684637
:101DF00000F0FAF8F0B92046FFF78EFAA0B104F12E
:101E000024000499FFF7B6FE2046FFF7C6FA00F05B
:101E10001BFA002888D14FF080500C490860BFF3AE
:101E20004F8FBFF36F8F7FE72046FFF7B6FA00F0C2
:101E30000BFA79E72046FFF7B0FA00F005FA2046E2
:101E4000FFF76AFA0028EED00020A8E704ED00E0D2
:101E500070B505460E462C46FFF77CFBD4E90F1201
:101E6000206801FB020060600020A0632068A06081
:101E7000E06B401E226C216800FB0210E060FF2036
:101E800084F8440084F845009EB9206908B901200F
:101E900000E00020A8B904F1100000F095F980B12D
:101EA0004FF0805009490860BFF34F8FBFF36F8F29
:101EB00007E004F11000FFF716FB04F12400FFF720
:101EC00012FBFFF759FB012070BD000004ED00E09C
:101ED0002DE9FF4383B0074688461D464FF00009B1
:101EE0003C4600BFFFF736FBA06BE16B884201D395
:101EF000022D28D12A4641462046FFF732F90646F0
:101F0000606A08B9012000E0002068B904F12400EB
:101F100000F05AF988B14FF0805032490860BFF3A1
:101F20004F8FBFF36F8F08E03EB14FF080502D49C7
:101F30000860BFF34F8FBFF36F8FFFF71DFB0120CA
:101F400007B0BDE8F083059818B9FFF715FB00202E
:101F5000F6E7B9F1000F04D101A8FFF723FE4FF017
:101F60000109FFF709FBFFF75BFEFFF7F3FA94F9AE
:101F70004400401C10B9002084F8440094F9450046
:101F8000401C10B9002084F84500FFF7F5FA05A9B8
:101F900001A800F029F8F0B92046FFF7CAF9A0B16E
:101FA00004F110000599FFF7E5FD2046FFF7F5F96C
:101FB00000F04AF9002895D14FF080500949086097
:101FC000BFF34F8FBFF36F8F8CE72046FFF7E5F924
:101FD00000F03AF986E72046FFF7DFF900F034F920
:101FE0000020ADE704ED00E070B504460D46FFF7B4
:101FF000B1FA124802682868401C08B9002619E0A6
:102000000F4920680968884204D06068904201D86E
:1020100001260FE06068101A2968884209D22868F2
:102020006168511A401A28602046FFF7BBFD002660
:1020300000E00126FFF7A0FA304670BD280000201E
:102040003C0000202DE9FF4F85B0804689461746A9
:10205000DDE912ABB800FFF7DFF9064656B14C20B8
:10206000FFF7DAF904460CB1266304E03046FFF7C7
:1020700093FA00E000247CB10020CDE900ABCDE96B
:1020800002403A4649464046089BFFF7D0F82046B2
:10209000FEF7C8FF012501E04FF0FF35284609B0E3
:1020A000BDE8F08F01490868704700002800002053
:1020B0002DE9F041002739480068002862D13848EE
:1020C0000068451C364805608DB93648D0F8008058
:1020D00035480068334908603348C0F80080334809
:1020E0000068401C31490860FFF732F900BF3048F2
:1020F000006885423AD300BF2A480068006808B9E2
:10210000012000E0002020B14FF0FF302849086096
:102110002BE024480068C068C4686668B54202D2F3
:102120002348066021E0201DFFF7C0F9A06A18B11E
:1021300004F11800FFF7BAF91E49E06A09688842FD
:1021400002D91C49E06A0860E16A01EB81011A4A80
:1021500002EB8100211DFFF7F0F91849E06A0968D8
:10216000C96A8842C8D30127C6E700BF1348006880
:10217000C06A00EB8000104951F82000012800D906
:10218000012704E00E480068401C0D4908600D4816
:10219000006800B101273846BDE8F0814C000020FE
:1021A00028000020180000201C0000203C00002017
:1021B000440000202C000020508C0020140000203F
:1021C000340000203800002070B50646F068C4686E
:1021D00004F11800FFF76AF915480068A0B9201D3E
:1021E000FFF764F91349E06A0968884202D9114986
:1021F000E06A0860E16A01EB81010F4A02EB8100AD
:10220000211DFFF79AF904E004F118010B48FFF7CC
:1022100094F90B49E06A0968C96A884204D9012522
:1022200001200849086000E00025284670BD000034
:102230004C0000202C000020508C0020DC8C002062
:10224000140000203800002070B500240026FFF79D
:1022500081F92E480068401E2C4908600846006835
:1022600000284ED12A48006800284AD023E0294897
:10227000C068C46804F11800FFF718F9201DFFF7C3
:1022800015F92549E06A0968884202D92249E06ABD
:102290000860E16A01EB8101204A02EB8100211D07
:1022A000FFF74BF91E49E06A0968C96A884202D300
:1022B00001201C4908601748006808B9012000E0A7
:1022C00000200028D3D00CB1FFF742F8164805686B
:1022D00065B100BFFFF7ECFE10B1012011490860A5
:1022E0006D1E002DF6D100200F4908600D480068D2
:1022F00038B1012630070D490860BFF34F8FBFF397
:102300006F8FFFF739F9304670BD00004C00002098
:1023100024000020DC8C00202C000020508C0020A9
:1023200014000020380000203400002004ED00E0FC
:102330005023000800000020500000006C0100083D
:10234000A023000850000020289300008801000806
:10235000000000000000000000000000000000007D
:10236000AAAAAAAA000000000000000000000000C5
:10237000000000000000000000000000000000005D
:10238000000000000000000000000000000000004D
:10239000000000000000000000000000000000003D
:040000050800026588
:00000001FF
